{
  "contractName": "StorageManager",
  "abi": [
    {
      "anonymous": false,
      "inputs": [
        {
          "indexed": true,
          "internalType": "bytes32",
          "name": "agreementReference",
          "type": "bytes32"
        },
        {
          "indexed": false,
          "internalType": "uint256",
          "name": "amount",
          "type": "uint256"
        }
      ],
      "name": "AgreementFundsDeposited",
      "type": "event"
    },
    {
      "anonymous": false,
      "inputs": [
        {
          "indexed": true,
          "internalType": "bytes32",
          "name": "agreementReference",
          "type": "bytes32"
        },
        {
          "indexed": false,
          "internalType": "uint256",
          "name": "amount",
          "type": "uint256"
        }
      ],
      "name": "AgreementFundsPayout",
      "type": "event"
    },
    {
      "anonymous": false,
      "inputs": [
        {
          "indexed": true,
          "internalType": "bytes32",
          "name": "agreementReference",
          "type": "bytes32"
        },
        {
          "indexed": false,
          "internalType": "uint256",
          "name": "amount",
          "type": "uint256"
        }
      ],
      "name": "AgreementFundsWithdrawn",
      "type": "event"
    },
    {
      "anonymous": false,
      "inputs": [
        {
          "indexed": true,
          "internalType": "bytes32",
          "name": "agreementReference",
          "type": "bytes32"
        }
      ],
      "name": "AgreementStopped",
      "type": "event"
    },
    {
      "anonymous": false,
      "inputs": [
        {
          "indexed": true,
          "internalType": "address",
          "name": "provider",
          "type": "address"
        },
        {
          "indexed": false,
          "internalType": "uint64",
          "name": "period",
          "type": "uint64"
        },
        {
          "indexed": false,
          "internalType": "uint64",
          "name": "price",
          "type": "uint64"
        }
      ],
      "name": "BillingPlanSet",
      "type": "event"
    },
    {
      "anonymous": false,
      "inputs": [
        {
          "indexed": true,
          "internalType": "address",
          "name": "provider",
          "type": "address"
        },
        {
          "indexed": false,
          "internalType": "bytes32[]",
          "name": "message",
          "type": "bytes32[]"
        }
      ],
      "name": "MessageEmitted",
      "type": "event"
    },
    {
      "anonymous": false,
      "inputs": [
        {
          "indexed": false,
          "internalType": "bytes32",
          "name": "agreementReference",
          "type": "bytes32"
        },
        {
          "indexed": false,
          "internalType": "bytes32[]",
          "name": "dataReference",
          "type": "bytes32[]"
        },
        {
          "indexed": true,
          "internalType": "address",
          "name": "agreementCreator",
          "type": "address"
        },
        {
          "indexed": true,
          "internalType": "address",
          "name": "provider",
          "type": "address"
        },
        {
          "indexed": false,
          "internalType": "uint128",
          "name": "size",
          "type": "uint128"
        },
        {
          "indexed": false,
          "internalType": "uint64",
          "name": "billingPeriod",
          "type": "uint64"
        },
        {
          "indexed": false,
          "internalType": "uint64",
          "name": "billingPrice",
          "type": "uint64"
        },
        {
          "indexed": false,
          "internalType": "uint256",
          "name": "availableFunds",
          "type": "uint256"
        }
      ],
      "name": "NewAgreement",
      "type": "event"
    },
    {
      "anonymous": false,
      "inputs": [
        {
          "indexed": true,
          "internalType": "address",
          "name": "provider",
          "type": "address"
        },
        {
          "indexed": false,
          "internalType": "uint128",
          "name": "capacity",
          "type": "uint128"
        }
      ],
      "name": "TotalCapacitySet",
      "type": "event"
    },
    {
      "inputs": [
        {
          "internalType": "address",
          "name": "",
          "type": "address"
        }
      ],
      "name": "offerRegistry",
      "outputs": [
        {
          "internalType": "uint128",
          "name": "utilizedCapacity",
          "type": "uint128"
        },
        {
          "internalType": "uint128",
          "name": "totalCapacity",
          "type": "uint128"
        }
      ],
      "stateMutability": "view",
      "type": "function"
    },
    {
      "inputs": [
        {
          "internalType": "uint128",
          "name": "capacity",
          "type": "uint128"
        },
        {
          "internalType": "uint64[]",
          "name": "billingPeriods",
          "type": "uint64[]"
        },
        {
          "internalType": "uint64[]",
          "name": "billingPrices",
          "type": "uint64[]"
        },
        {
          "internalType": "bytes32[]",
          "name": "message",
          "type": "bytes32[]"
        }
      ],
      "name": "setOffer",
      "outputs": [],
      "stateMutability": "nonpayable",
      "type": "function"
    },
    {
      "inputs": [
        {
          "internalType": "uint128",
          "name": "capacity",
          "type": "uint128"
        }
      ],
      "name": "setTotalCapacity",
      "outputs": [],
      "stateMutability": "nonpayable",
      "type": "function"
    },
    {
      "inputs": [],
      "name": "terminateOffer",
      "outputs": [],
      "stateMutability": "nonpayable",
      "type": "function"
    },
    {
      "inputs": [
        {
          "internalType": "uint64[]",
          "name": "billingPeriods",
          "type": "uint64[]"
        },
        {
          "internalType": "uint64[]",
          "name": "billingPrices",
          "type": "uint64[]"
        }
      ],
      "name": "setBillingPlans",
      "outputs": [],
      "stateMutability": "nonpayable",
      "type": "function"
    },
    {
      "inputs": [
        {
          "internalType": "bytes32[]",
          "name": "message",
          "type": "bytes32[]"
        }
      ],
      "name": "emitMessage",
      "outputs": [],
      "stateMutability": "nonpayable",
      "type": "function"
    },
    {
      "inputs": [
        {
          "internalType": "bytes32[]",
          "name": "dataReference",
          "type": "bytes32[]"
        },
        {
          "internalType": "address",
          "name": "provider",
          "type": "address"
        },
        {
          "internalType": "uint128",
          "name": "size",
          "type": "uint128"
        },
        {
          "internalType": "uint64",
          "name": "billingPeriod",
          "type": "uint64"
        },
        {
          "internalType": "bytes32[]",
          "name": "agreementsReferencesToBePayedOut",
          "type": "bytes32[]"
        }
      ],
      "name": "newAgreement",
      "outputs": [],
      "stateMutability": "payable",
      "type": "function"
    },
    {
      "inputs": [
        {
          "internalType": "bytes32[]",
          "name": "dataReference",
          "type": "bytes32[]"
        },
        {
          "internalType": "address",
          "name": "provider",
          "type": "address"
        }
      ],
      "name": "depositFunds",
      "outputs": [],
      "stateMutability": "payable",
      "type": "function"
    },
    {
      "inputs": [
        {
          "internalType": "bytes32[]",
          "name": "dataReference",
          "type": "bytes32[]"
        },
        {
          "internalType": "address",
          "name": "provider",
          "type": "address"
        },
        {
          "internalType": "uint256",
          "name": "amount",
          "type": "uint256"
        }
      ],
      "name": "withdrawFunds",
      "outputs": [],
      "stateMutability": "payable",
      "type": "function"
    },
    {
      "inputs": [
        {
          "internalType": "bytes32[]",
          "name": "agreementReferences",
          "type": "bytes32[]"
        }
      ],
      "name": "payoutFunds",
      "outputs": [],
      "stateMutability": "nonpayable",
      "type": "function"
    },
    {
      "inputs": [
        {
          "internalType": "bytes32[]",
          "name": "dataReference",
          "type": "bytes32[]"
        },
        {
          "internalType": "address",
          "name": "creator",
          "type": "address"
        }
      ],
      "name": "getAgreementReference",
      "outputs": [
        {
          "internalType": "bytes32",
          "name": "",
          "type": "bytes32"
        }
      ],
      "stateMutability": "pure",
      "type": "function"
    }
  ],
  "bytecode": "0x608060405234801561001057600080fd5b506130a8806100206000396000f3fe60806040526004361061009c5760003560e01c80638f5c5fc8116100645780638f5c5fc814610581578063b4d6273e14610635578063b585969314610682578063ba10a1e014610699578063f04c898b146107f2578063fb295912146108eb5761009c565b8063020f6c74146100a15780632fd09ef914610166578063754347c31461022b57806377d97feb146103c7578063781542d31461049f575b600080fd5b3480156100ad57600080fd5b50610164600480360360208110156100c457600080fd5b81019080803590602001906401000000008111156100e157600080fd5b8201836020820111156100f357600080fd5b8035906020019184602083028401116401000000008311171561011557600080fd5b919080806020026020016040519081016040528093929190818152602001838360200280828437600081840152601f19601f820116905080830192505050505050509192919290505050610af4565b005b34801561017257600080fd5b506102296004803603602081101561018957600080fd5b81019080803590602001906401000000008111156101a657600080fd5b8201836020820111156101b857600080fd5b803590602001918460208302840111640100000000831117156101da57600080fd5b919080806020026020016040519081016040528093929190818152602001838360200280828437600081840152601f19601f820116905080830192505050505050509192919290505050610b01565b005b6103c5600480360360a081101561024157600080fd5b810190808035906020019064010000000081111561025e57600080fd5b82018360208201111561027057600080fd5b8035906020019184602083028401116401000000008311171561029257600080fd5b919080806020026020016040519081016040528093929190818152602001838360200280828437600081840152601f19601f820116905080830192505050505050509192919290803573ffffffffffffffffffffffffffffffffffffffff16906020019092919080356fffffffffffffffffffffffffffffffff169060200190929190803567ffffffffffffffff1690602001909291908035906020019064010000000081111561034257600080fd5b82018360208201111561035457600080fd5b8035906020019184602083028401116401000000008311171561037657600080fd5b919080806020026020016040519081016040528093929190818152602001838360200280828437600081840152601f19601f820116905080830192505050505050509192919290505050610b0d565b005b61049d600480360360408110156103dd57600080fd5b81019080803590602001906401000000008111156103fa57600080fd5b82018360208201111561040c57600080fd5b8035906020019184602083028401116401000000008311171561042e57600080fd5b919080806020026020016040519081016040528093929190818152602001838360200280828437600081840152601f19601f820116905080830192505050505050509192919290803573ffffffffffffffffffffffffffffffffffffffff169060200190929190505050611280565b005b61057f600480360360608110156104b557600080fd5b81019080803590602001906401000000008111156104d257600080fd5b8201836020820111156104e457600080fd5b8035906020019184602083028401116401000000008311171561050657600080fd5b919080806020026020016040519081016040528093929190818152602001838360200280828437600081840152601f19601f820116905080830192505050505050509192919290803573ffffffffffffffffffffffffffffffffffffffff16906020019092919080359060200190929190505050611659565b005b34801561058d57600080fd5b506105d0600480360360208110156105a457600080fd5b81019080803573ffffffffffffffffffffffffffffffffffffffff169060200190929190505050611b79565b60405180836fffffffffffffffffffffffffffffffff166fffffffffffffffffffffffffffffffff168152602001826fffffffffffffffffffffffffffffffff166fffffffffffffffffffffffffffffffff1681526020019250505060405180910390f35b34801561064157600080fd5b506106806004803603602081101561065857600080fd5b8101908080356fffffffffffffffffffffffffffffffff169060200190929190505050611bd5565b005b34801561068e57600080fd5b50610697611d34565b005b3480156106a557600080fd5b506107f0600480360360408110156106bc57600080fd5b81019080803590602001906401000000008111156106d957600080fd5b8201836020820111156106eb57600080fd5b8035906020019184602083028401116401000000008311171561070d57600080fd5b919080806020026020016040519081016040528093929190818152602001838360200280828437600081840152601f19601f8201169050808301925050505050505091929192908035906020019064010000000081111561076d57600080fd5b82018360208201111561077f57600080fd5b803590602001918460208302840111640100000000831117156107a157600080fd5b919080806020026020016040519081016040528093929190818152602001838360200280828437600081840152601f19601f820116905080830192505050505050509192919290505050611ee7565b005b3480156107fe57600080fd5b506108d56004803603604081101561081557600080fd5b810190808035906020019064010000000081111561083257600080fd5b82018360208201111561084457600080fd5b8035906020019184602083028401116401000000008311171561086657600080fd5b919080806020026020016040519081016040528093929190818152602001838360200280828437600081840152601f19601f820116905080830192505050505050509192919290803573ffffffffffffffffffffffffffffffffffffffff16906020019092919050505061210a565b6040518082815260200191505060405180910390f35b3480156108f757600080fd5b50610af26004803603608081101561090e57600080fd5b8101908080356fffffffffffffffffffffffffffffffff1690602001909291908035906020019064010000000081111561094757600080fd5b82018360208201111561095957600080fd5b8035906020019184602083028401116401000000008311171561097b57600080fd5b919080806020026020016040519081016040528093929190818152602001838360200280828437600081840152601f19601f820116905080830192505050505050509192919290803590602001906401000000008111156109db57600080fd5b8201836020820111156109ed57600080fd5b80359060200191846020830284011164010000000083111715610a0f57600080fd5b919080806020026020016040519081016040528093929190818152602001838360200280828437600081840152601f19601f82011690508083019250505050505050919291929080359060200190640100000000811115610a6f57600080fd5b820183602082011115610a8157600080fd5b80359060200191846020830284011164010000000083111715610aa357600080fd5b919080806020026020016040519081016040528093929190818152602001838360200280828437600081840152601f19601f82011690508083019250505050505050919291929050505061219f565b005b610afe8133612310565b50565b610b0a8161293e565b50565b8360008060008373ffffffffffffffffffffffffffffffffffffffff1673ffffffffffffffffffffffffffffffffffffffff168152602001908152602001600020905060008160000160109054906101000a90046fffffffffffffffffffffffffffffffff166fffffffffffffffffffffffffffffffff161415610bdc576040517f08c379a0000000000000000000000000000000000000000000000000000000008152600401808060200182810382526035815260200180612def6035913960400191505060405180910390fd5b60008467ffffffffffffffff161415610c40576040517f08c379a000000000000000000000000000000000000000000000000000000000815260040180806020018281038252602f815260200180612d8f602f913960400191505060405180910390fd5b6000856fffffffffffffffffffffffffffffffff1611610cab576040517f08c379a000000000000000000000000000000000000000000000000000000000815260040180806020018281038252602c815260200180612ede602c913960400191505060405180910390fd5b60008060008873ffffffffffffffffffffffffffffffffffffffff1673ffffffffffffffffffffffffffffffffffffffff16815260200190815260200160002090506000610cf9893361210a565b90506000826002016000838152602001908152602001600020905060008160020160109054906101000a90046fffffffffffffffffffffffffffffffff166fffffffffffffffffffffffffffffffff1614610d9f576040517f08c379a0000000000000000000000000000000000000000000000000000000008152600401808060200182810382526028815260200180612f8f6028913960400191505060405180910390fd5b60008360010160008967ffffffffffffffff1667ffffffffffffffff16815260200190815260200160002060009054906101000a900467ffffffffffffffff16905060008167ffffffffffffffff161415610e45576040517f08c379a000000000000000000000000000000000000000000000000000000000815260040180806020018281038252603581526020018061303e6035913960400191505060405180910390fd5b610e5c3483600101546129d090919063ffffffff16565b82600101819055508067ffffffffffffffff1689026fffffffffffffffffffffffffffffffff1682600101541015610edf576040517f08c379a0000000000000000000000000000000000000000000000000000000008152600401808060200182810382526049815260200180612e686049913960600191505060405180910390fd5b888260020160006101000a8154816fffffffffffffffffffffffffffffffff02191690836fffffffffffffffffffffffffffffffff160217905550808260000160006101000a81548167ffffffffffffffff021916908367ffffffffffffffff160217905550878260000160086101000a81548167ffffffffffffffff021916908367ffffffffffffffff160217905550610f78612a58565b8260020160106101000a8154816fffffffffffffffffffffffffffffffff02191690836fffffffffffffffffffffffffffffffff160217905550600087511115610fc757610fc6878b612310565b5b6000808b73ffffffffffffffffffffffffffffffffffffffff1673ffffffffffffffffffffffffffffffffffffffff168152602001908152602001600020935061105e896fffffffffffffffffffffffffffffffff168560000160009054906101000a90046fffffffffffffffffffffffffffffffff166fffffffffffffffffffffffffffffffff166129d090919063ffffffff16565b8460000160006101000a8154816fffffffffffffffffffffffffffffffff02191690836fffffffffffffffffffffffffffffffff1602179055508360000160109054906101000a90046fffffffffffffffffffffffffffffffff166fffffffffffffffffffffffffffffffff168460000160009054906101000a90046fffffffffffffffffffffffffffffffff166fffffffffffffffffffffffffffffffff161115611155576040517f08c379a000000000000000000000000000000000000000000000000000000000815260040180806020018281038252602d815260200180612eb1602d913960400191505060405180910390fd5b8973ffffffffffffffffffffffffffffffffffffffff163373ffffffffffffffffffffffffffffffffffffffff167fc6cb14b4af81c8a949cb6c23fab93f1bda9df891d699331ec927044a1e2e93c1858e8d8d8789600101546040518087815260200180602001866fffffffffffffffffffffffffffffffff166fffffffffffffffffffffffffffffffff1681526020018567ffffffffffffffff1667ffffffffffffffff1681526020018467ffffffffffffffff1667ffffffffffffffff168152602001838152602001828103825287818151815260200191508051906020019060200280838360005b8381101561125b578082015181840152602081019050611240565b5050505090500197505050505050505060405180910390a35050505050505050505050565b8060008060008373ffffffffffffffffffffffffffffffffffffffff1673ffffffffffffffffffffffffffffffffffffffff168152602001908152602001600020905060008160000160109054906101000a90046fffffffffffffffffffffffffffffffff166fffffffffffffffffffffffffffffffff16141561134f576040517f08c379a0000000000000000000000000000000000000000000000000000000008152600401808060200182810382526035815260200180612def6035913960400191505060405180910390fd5b838360008060008373ffffffffffffffffffffffffffffffffffffffff1673ffffffffffffffffffffffffffffffffffffffff1681526020019081526020016000209050600061139f843361210a565b90506000826002016000838152602001908152602001600020905060008160020160009054906101000a90046fffffffffffffffffffffffffffffffff166fffffffffffffffffffffffffffffffff161415611446576040517f08c379a0000000000000000000000000000000000000000000000000000000008152600401808060200182810382526036815260200180612f356036913960400191505060405180910390fd5b60006114528a3361210a565b905060008060008b73ffffffffffffffffffffffffffffffffffffffff1673ffffffffffffffffffffffffffffffffffffffff16815260200190815260200160002090506000816002016000848152602001908152602001600020905060008160020160109054906101000a90046fffffffffffffffffffffffffffffffff166fffffffffffffffffffffffffffffffff16141561153b576040517f08c379a0000000000000000000000000000000000000000000000000000000008152600401808060200182810382526024815260200180612f6b6024913960400191505060405180910390fd5b60008260010160008360000160089054906101000a900467ffffffffffffffff1667ffffffffffffffff1667ffffffffffffffff16815260200190815260200160002060009054906101000a900467ffffffffffffffff1667ffffffffffffffff1614156115f4576040517f08c379a000000000000000000000000000000000000000000000000000000000815260040180806020018281038252602b815260200180612f0a602b913960400191505060405180910390fd5b61160b3482600101546129d090919063ffffffff16565b8160010181905550827f642834973b6a33d6361521d505770b0a82d783d94aa057e125e4f01f3c8ac388346040518082815260200191505060405180910390a2505050505050505050505050565b828260008060008373ffffffffffffffffffffffffffffffffffffffff1673ffffffffffffffffffffffffffffffffffffffff168152602001908152602001600020905060006116a9843361210a565b90506000826002016000838152602001908152602001600020905060008160020160009054906101000a90046fffffffffffffffffffffffffffffffff166fffffffffffffffffffffffffffffffff161415611750576040517f08c379a0000000000000000000000000000000000000000000000000000000008152600401808060200182810382526036815260200180612f356036913960400191505060405180910390fd5b60008060008973ffffffffffffffffffffffffffffffffffffffff1673ffffffffffffffffffffffffffffffffffffffff1681526020019081526020016000209050600061179e8a3361210a565b9050600082600201600083815260200190815260200160002090506000808260020160109054906101000a90046fffffffffffffffffffffffffffffffff166fffffffffffffffffffffffffffffffff1614156118015781600101549050611978565b8160020160009054906101000a90046fffffffffffffffffffffffffffffffff168260000160009054906101000a900467ffffffffffffffff1667ffffffffffffffff16026fffffffffffffffffffffffffffffffff1661196e836040518060a00160405290816000820160009054906101000a900467ffffffffffffffff1667ffffffffffffffff1667ffffffffffffffff1681526020016000820160089054906101000a900467ffffffffffffffff1667ffffffffffffffff1667ffffffffffffffff168152602001600182015481526020016002820160009054906101000a90046fffffffffffffffffffffffffffffffff166fffffffffffffffffffffffffffffffff166fffffffffffffffffffffffffffffffff1681526020016002820160109054906101000a90046fffffffffffffffffffffffffffffffff166fffffffffffffffffffffffffffffffff166fffffffffffffffffffffffffffffffff1681525050612a60565b8360010154030390505b60008a1415611985578099505b808a11156119de576040517f08c379a0000000000000000000000000000000000000000000000000000000008152600401808060200182810382526021815260200180612e246021913960400191505060405180910390fd5b6119f58a8360010154612af890919063ffffffff16565b826001018190555060008a11611a56576040517f08c379a0000000000000000000000000000000000000000000000000000000008152600401808060200182810382526023815260200180612e456023913960400191505060405180910390fd5b60003373ffffffffffffffffffffffffffffffffffffffff168b60405180600001905060006040518083038185875af1925050503d8060008114611ab6576040519150601f19603f3d011682016040523d82523d6000602084013e611abb565b606091505b5050905080611b32576040517f08c379a00000000000000000000000000000000000000000000000000000000081526004018080602001828103825260108152602001807f5472616e73666572206661696c65642e0000000000000000000000000000000081525060200191505060405180910390fd5b837fb0a67554221bac7cd8600d6718cbf9d810a5861dac56510b0cc5950d8c459f6b8c6040518082815260200191505060405180910390a250505050505050505050505050565b60006020528060005260406000206000915090508060000160009054906101000a90046fffffffffffffffffffffffffffffffff16908060000160109054906101000a90046fffffffffffffffffffffffffffffffff16905082565b6000816fffffffffffffffffffffffffffffffff161415611c41576040517f08c379a0000000000000000000000000000000000000000000000000000000008152600401808060200182810382526034815260200180612fe56034913960400191505060405180910390fd5b60008060003373ffffffffffffffffffffffffffffffffffffffff1673ffffffffffffffffffffffffffffffffffffffff1681526020019081526020016000209050818160000160106101000a8154816fffffffffffffffffffffffffffffffff02191690836fffffffffffffffffffffffffffffffff1602179055503373ffffffffffffffffffffffffffffffffffffffff167f80ee1396a7850602e7f8471e9e7c3eabfca1b79d20e9055b9e1885f689eb81798360405180826fffffffffffffffffffffffffffffffff166fffffffffffffffffffffffffffffffff16815260200191505060405180910390a25050565b3360008060008373ffffffffffffffffffffffffffffffffffffffff1673ffffffffffffffffffffffffffffffffffffffff168152602001908152602001600020905060008160000160109054906101000a90046fffffffffffffffffffffffffffffffff166fffffffffffffffffffffffffffffffff161415611e03576040517f08c379a0000000000000000000000000000000000000000000000000000000008152600401808060200182810382526035815260200180612def6035913960400191505060405180910390fd5b60008060003373ffffffffffffffffffffffffffffffffffffffff1673ffffffffffffffffffffffffffffffffffffffff168152602001908152602001600020905060008160000160106101000a8154816fffffffffffffffffffffffffffffffff02191690836fffffffffffffffffffffffffffffffff1602179055503373ffffffffffffffffffffffffffffffffffffffff167f80ee1396a7850602e7f8471e9e7c3eabfca1b79d20e9055b9e1885f689eb8179600060405180826fffffffffffffffffffffffffffffffff16815260200191505060405180910390a2505050565b3360008060008373ffffffffffffffffffffffffffffffffffffffff1673ffffffffffffffffffffffffffffffffffffffff168152602001908152602001600020905060008160000160109054906101000a90046fffffffffffffffffffffffffffffffff166fffffffffffffffffffffffffffffffff161415611fb6576040517f08c379a0000000000000000000000000000000000000000000000000000000008152600401808060200182810382526035815260200180612def6035913960400191505060405180910390fd5b6000845111612010576040517f08c379a000000000000000000000000000000000000000000000000000000000815260040180806020018281038252602e815260200180612fb7602e913960400191505060405180910390fd5b825184511461206a576040517f08c379a0000000000000000000000000000000000000000000000000000000008152600401808060200182810382526049815260200180612d466049913960600191505060405180910390fd5b60008060003373ffffffffffffffffffffffffffffffffffffffff1673ffffffffffffffffffffffffffffffffffffffff168152602001908152602001600020905060008090505b85518160ff161015612102576120f582878360ff16815181106120d157fe5b6020026020010151878460ff16815181106120e857fe5b6020026020010151612b42565b80806001019150506120b2565b505050505050565b60008183604051602001808373ffffffffffffffffffffffffffffffffffffffff1673ffffffffffffffffffffffffffffffffffffffff1660601b8152601401828051906020019060200280838360005b8381101561217657808201518184015260208101905061215b565b505050509050019250505060405160208183030381529060405280519060200120905092915050565b60008060003373ffffffffffffffffffffffffffffffffffffffff1673ffffffffffffffffffffffffffffffffffffffff16815260200190815260200160002090506121ea85611bd5565b6000845111612244576040517f08c379a000000000000000000000000000000000000000000000000000000000815260040180806020018281038252602e815260200180612fb7602e913960400191505060405180910390fd5b825184511461229e576040517f08c379a0000000000000000000000000000000000000000000000000000000008152600401808060200182810382526049815260200180612d466049913960600191505060405180910390fd5b60008090505b84518160ff1610156122f4576122e782868360ff16815181106122c357fe5b6020026020010151868460ff16815181106122da57fe5b6020026020010151612b42565b80806001019150506122a4565b50600082511115612309576123088261293e565b5b5050505050565b60008060008373ffffffffffffffffffffffffffffffffffffffff1673ffffffffffffffffffffffffffffffffffffffff1681526020019081526020016000209050600080905060008090505b84518160ff161015612801576000836002016000878460ff168151811061238057fe5b60200260200101518152602001908152602001600020905060008160020160009054906101000a90046fffffffffffffffffffffffffffffffff166fffffffffffffffffffffffffffffffff161415612424576040517f08c379a0000000000000000000000000000000000000000000000000000000008152600401808060200182810382526036815260200180612f356036913960400191505060405180910390fd5b60008160020160109054906101000a90046fffffffffffffffffffffffffffffffff166fffffffffffffffffffffffffffffffff1614156124b0576040517f08c379a00000000000000000000000000000000000000000000000000000000081526004018080602001828103825260258152602001806130196025913960400191505060405180910390fd5b60006125c8826040518060a00160405290816000820160009054906101000a900467ffffffffffffffff1667ffffffffffffffff1667ffffffffffffffff1681526020016000820160089054906101000a900467ffffffffffffffff1667ffffffffffffffff1667ffffffffffffffff168152602001600182015481526020016002820160009054906101000a90046fffffffffffffffffffffffffffffffff166fffffffffffffffffffffffffffffffff166fffffffffffffffffffffffffffffffff1681526020016002820160109054906101000a90046fffffffffffffffffffffffffffffffff166fffffffffffffffffffffffffffffffff166fffffffffffffffffffffffffffffffff1681525050612a60565b90506125e1818360010154612af890919063ffffffff16565b82600101819055506125fc81856129d090919063ffffffff16565b93508160020160009054906101000a90046fffffffffffffffffffffffffffffffff168260000160009054906101000a900467ffffffffffffffff1667ffffffffffffffff16026fffffffffffffffffffffffffffffffff16826001015410156127615760008260020160106101000a8154816fffffffffffffffffffffffffffffffff02191690836fffffffffffffffffffffffffffffffff1602179055508160020160009054906101000a90046fffffffffffffffffffffffffffffffff168560000160009054906101000a90046fffffffffffffffffffffffffffffffff16038560000160006101000a8154816fffffffffffffffffffffffffffffffff02191690836fffffffffffffffffffffffffffffffff160217905550868360ff168151811061272857fe5b60200260200101517f28b8eb5ccfb9c485b6ee9be3b0153679351f87ca0753786218a455bc3bbe5fdf60405160405180910390a26127a4565b612769612a58565b8260020160106101000a8154816fffffffffffffffffffffffffffffffff02191690836fffffffffffffffffffffffffffffffff1602179055505b868360ff16815181106127b357fe5b60200260200101517f9d3a0426e996245d7bac3a65ff1a596f72a9b3051ebb8fdb1e2e62071e930f93826040518082815260200191505060405180910390a25050808060010191505061235d565b506000811161285b576040517f08c379a0000000000000000000000000000000000000000000000000000000008152600401808060200182810382526023815260200180612e456023913960400191505060405180910390fd5b60008373ffffffffffffffffffffffffffffffffffffffff168260405180600001905060006040518083038185875af1925050503d80600081146128bb576040519150601f19603f3d011682016040523d82523d6000602084013e6128c0565b606091505b5050905080612937576040517f08c379a00000000000000000000000000000000000000000000000000000000081526004018080602001828103825260208152602001807f53746f726167654d616e616765723a205472616e73666572206661696c65642e81525060200191505060405180910390fd5b5050505050565b3373ffffffffffffffffffffffffffffffffffffffff167f8e9ae80d46259102dfbf4ae6121dbe6548e85c8c0494163e8e0bf0e87bcd5876826040518080602001828103825283818151815260200191508051906020019060200280838360005b838110156129ba57808201518184015260208101905061299f565b505050509050019250505060405180910390a250565b600080828401905083811015612a4e576040517f08c379a000000000000000000000000000000000000000000000000000000000815260040180806020018281038252601b8152602001807f536166654d6174683a206164646974696f6e206f766572666c6f77000000000081525060200191505060405180910390fd5b8091505092915050565b600042905090565b600080826000015167ffffffffffffffff168360600151026fffffffffffffffffffffffffffffffff1690506000836020015167ffffffffffffffff1684608001516fffffffffffffffffffffffffffffffff16612abc612a58565b0381612ac457fe5b049050600082820290508460400151811115612aed578283866040015181612ae857fe5b040290505b809350505050919050565b6000612b3a83836040518060400160405280601e81526020017f536166654d6174683a207375627472616374696f6e206f766572666c6f770000815250612c85565b905092915050565b62ed4e0067ffffffffffffffff168267ffffffffffffffff161115612bb2576040517f08c379a0000000000000000000000000000000000000000000000000000000008152600401808060200182810382526031815260200180612dbe6031913960400191505060405180910390fd5b808360010160008467ffffffffffffffff1667ffffffffffffffff16815260200190815260200160002060006101000a81548167ffffffffffffffff021916908367ffffffffffffffff1602179055503373ffffffffffffffffffffffffffffffffffffffff167fb178a96fffb23bde93e06bc8bf7a7f2046791fc0f35babd9bf32c3f77828b77f8383604051808367ffffffffffffffff1667ffffffffffffffff1681526020018267ffffffffffffffff1667ffffffffffffffff1681526020019250505060405180910390a2505050565b6000838311158290612d32576040517f08c379a00000000000000000000000000000000000000000000000000000000081526004018080602001828103825283818151815260200191508051906020019080838360005b83811015612cf7578082015181840152602081019050612cdc565b50505050905090810190601f168015612d245780820380516001836020036101000a031916815260200191505b509250505060405180910390fd5b506000838503905080915050939250505056fe53746f726167654d616e616765723a2042696c6c696e6720706c616e73206172726179206c656e6774682068617320746f20657175616c20746f2062696c6c696e672070726963657353746f726167654d616e616765723a2042696c6c696e6720706572696f64206f662030206e6f7420616c6c6f77656453746f726167654d616e616765723a2042696c6c696e6720706572696f6420657863656564206d61782e206c656e67746853746f726167654d616e616765723a204f6666657220666f7220746869732050726f766964657220646f65736e277420657869737453746f726167654d616e616765723a20416d6f756e7420697320746f6f2062696753746f726167654d616e616765723a204e6f7468696e6720746f20776974686472617753746f726167654d616e616765723a2046756e6473206465706f73697465642068617320746f20626520666f72206174206c65617374206f6e652062696c6c696e6720706572696f6453746f726167654d616e616765723a20496e73756666696369656e74204f66666572277320636170616369747953746f726167654d616e616765723a2053697a652068617320746f20626520626967676572207468656e203053746f726167654d616e616765723a205072696365206e6f7420617661696c61626c6520616e796d6f726553746f726167654d616e616765723a2041677265656d656e7420666f722074686973204f6666657220646f65736e277420657869737453746f726167654d616e616765723a2041677265656d656e74206e6f742061637469766553746f726167654d616e616765723a2041677265656d656e7420616c72656164792061637469766553746f726167654d616e616765723a204f66666572206e6565647320736f6d652062696c6c696e6720706c616e7353746f726167654d616e616765723a2043617061636974792068617320746f2062652067726561746572207468656e207a65726f53746f726167654d616e616765723a2041677265656d656e7420697320696e61637469766553746f726167654d616e616765723a2042696c6c696e6720707269636520646f65736e277420657869737420666f72204f66666572a2646970667358221220cec0646d133d4f35ee95c756f65e81f35d36e7a0797c91495dc9dfe3e5b8a5fb64736f6c63430006020033",
  "source": "pragma solidity 0.6.2;\n\nimport \"./vendor/SafeMath.sol\";\n\n/// @title StorageManager\n/// @author Rinke Hendriksen <rinke@iovlabs.org>\n/// @author Adam Uhlir <adam@iovlabs.org>\n/// @notice Providers can offer their storage space and list their price and Consumers can take these offers\ncontract StorageManager {\n\n    using SafeMath for uint256;\n    using SafeMath for uint128;\n    using SafeMath for uint64;\n    uint64 constant private MAX_BILLING_PERIOD = 15552000; // 6 * 30 days ~~ 6 months\n\n    modifier activeOffer(address provider){\n        Offer storage offer = offerRegistry[provider];\n        require(offer.totalCapacity != 0, \"StorageManager: Offer for this Provider doesn't exist\");\n        _;\n    }\n\n    modifier existingAgreement(bytes32[] memory dataReference, address provider){\n        Offer storage offer = offerRegistry[provider];\n        bytes32 agreementReference = getAgreementReference(dataReference, msg.sender);\n        Agreement storage agreement = offer.agreementRegistry[agreementReference];\n        require(agreement.size != 0, \"StorageManager: Agreement for this Offer doesn't exist\");\n        _;\n    }\n\n    /*\n    Offer represents:\n     - utilizedCapacity: how much is capacity is utilized in Offer.\n     - totalCapacity: total amount of bytes offered.\n     - billingPlans: maps a billing period to a billing price. When a price is 0, the period is not offered.\n     - agreementRegistry: the proposed and accepted Agreement\n    */\n    struct Offer {\n        uint128 utilizedCapacity;\n        uint128 totalCapacity;\n        mapping(uint64 => uint64) billingPlans;\n        mapping(bytes32 => Agreement) agreementRegistry; // link to agreement that are accepted under this offer\n    }\n\n    /*\n    Agreement represents:\n     - billingPrice: price per byte that is collected per each period.\n     - billingPeriod: period how often billing happens.\n     - size: allocated size for the Agreement (in bytes, rounded up)\n     - availableFunds: funds available for the billing of the Agreement.\n     - lastPayoutDate: When was the last time Provider was payed out. Zero either means non-existing or terminated Agreement.\n    */\n    struct Agreement {\n        uint64 billingPrice;\n        uint64 billingPeriod;\n        uint256 availableFunds;\n        uint128 size;\n        uint128 lastPayoutDate;\n    }\n\n    // offerRegistry stores the open or closed Offer for provider.\n    mapping(address => Offer) public offerRegistry;\n\n    event TotalCapacitySet(address indexed provider, uint128 capacity);\n    event BillingPlanSet(address indexed provider, uint64 period, uint64 price);\n    event MessageEmitted(address indexed provider, bytes32[] message);\n\n    event NewAgreement(\n        bytes32 agreementReference,\n        bytes32[] dataReference,\n        address indexed agreementCreator,\n        address indexed provider,\n        uint128 size,\n        uint64 billingPeriod,\n        uint64 billingPrice,\n        uint256 availableFunds\n    );\n    event AgreementFundsDeposited(bytes32 indexed agreementReference, uint256 amount);\n    event AgreementFundsWithdrawn(bytes32 indexed agreementReference, uint256 amount);\n    event AgreementFundsPayout(bytes32 indexed agreementReference, uint256 amount);\n    event AgreementStopped(bytes32 indexed agreementReference);\n\n    /**\n    >> FOR PROVIDER\n    @notice set the totalCapacity and billingPlans of a Offer.\n    @dev\n    - Use this function when initiating an Offer or when the users wants to change more than one parameter at once.\n    - Exercise caution with assigning additional capacity when capacity is already taken.\n        It may happen that when a lot of capacity is available and we release already-taken capacity, capacity overflows.\n        We explicitly allow this overflow to happen on the smart-contract level,\n        because the worst thing that can happen is that the provider now has less storage available than planned (in which case he can top it up himself).\n        However, take care of this in the client. REF_CAPACITY\n    - make sure that any period * prices does not cause an overflow, as this can never be accepted (REF_MAX_PRICE) and hence is pointless\n    @param capacity the amount of bytes offered.\n    If already active before and set to 0, existing contracts can't be prolonged / re-started, no new contracts can be started.\n    @param billingPeriods the offered periods. Length must be equal to the lenght of billingPrices.\n    @param billingPrices the prices for the offered periods. Each entry at index corresponds to the same index at periods. When a price is 0, the matching period is not offered.\n    @param message the Provider may include a message (e.g. his nodeID).  Message should be structured such that the first two bits specify the message type, followed with the message). 0x01 == nodeID\n    */\n    function setOffer(uint128 capacity,\n        uint64[] memory billingPeriods,\n        uint64[] memory billingPrices,\n        bytes32[] memory message\n    ) public {\n        Offer storage offer = offerRegistry[msg.sender];\n        setTotalCapacity(capacity);\n        require(billingPeriods.length > 0, \"StorageManager: Offer needs some billing plans\");\n        require(billingPeriods.length == billingPrices.length, \"StorageManager: Billing plans array length has to equal to billing prices\");\n        for (uint8 i = 0; i < billingPeriods.length; i++) {\n            _setBillingPlan(offer, billingPeriods[i], billingPrices[i]);\n        }\n        if (message.length > 0) {\n            _emitMessage(message);\n        }\n    }\n\n    /**\n    >> FOR PROVIDER\n    @notice sets total capacity of Offer.\n    @param capacity the new capacity\n    */\n    function setTotalCapacity(uint128 capacity) public {\n        require(capacity != 0, \"StorageManager: Capacity has to be greater then zero\");\n        Offer storage offer = offerRegistry[msg.sender];\n        offer.totalCapacity = capacity;\n        emit TotalCapacitySet(msg.sender, capacity);\n    }\n\n    /**\n    >> FOR PROVIDER\n    @notice stops the Offer. It sets\n    @dev no new Agreement can be created and no existing Agreement can be prolonged. All existing Agreement are still valid for the amount of periods still deposited.\n    */\n    function terminateOffer() public activeOffer(msg.sender) {\n        Offer storage offer = offerRegistry[msg.sender];\n        offer.totalCapacity = 0;\n        emit TotalCapacitySet(msg.sender, 0);\n    }\n\n    /**\n    >> FOR PROVIDER\n    @notice set the billing plans for an Offer.\n    @dev\n    - setting the price to 0 means that a particular period is not offered, which can be used to remove a period from the offer.\n    - make sure that any period * prices does not cause an overflow, as this can never be accepted (REF_MAX_PRICE) and hence is pointless.\n    @param billingPeriods the offered periods. Length must be equal to billingPrices.\n    @param billingPrices the prices for the offered periods. Each entry at index corresponds to the same index at periods. 0 means that the particular period is not offered.\n    */\n    function setBillingPlans(uint64[] memory billingPeriods, uint64[] memory billingPrices) public activeOffer(msg.sender) {\n        require(billingPeriods.length > 0, \"StorageManager: Offer needs some billing plans\");\n        require(billingPeriods.length == billingPrices.length, \"StorageManager: Billing plans array length has to equal to billing prices\");\n        Offer storage offer = offerRegistry[msg.sender];\n        for (uint8 i = 0; i < billingPeriods.length; i++) {\n            _setBillingPlan(offer, billingPeriods[i], billingPrices[i]);\n        }\n    }\n\n    /**\n    >> FOR PROVIDER\n    @param message the Provider may send a message (e.g. his nodeID). Message should be structured such that the first two bits specify the message type, followed with the message). 0x01 == nodeID\n    */\n    function emitMessage(bytes32[]memory message) public {\n        _emitMessage(message);\n    }\n\n    /**\n    >> FOR CONSUMER\n    @notice new Agreement for given Offer\n    @dev\n     - The to-be-pinned data reference's size in bytes (rounded up) must be equal in size to param size.\n     - Provider can reject to pin data reference when it exceeds specified size.\n     - The ownership of Agreement is enforced with agreementReference structure which is calculated as: hash(msg.sender, dataReference)\n    @param dataReference the reference to an Data Source, can be several things.\n    @param provider the provider from which is proposed to take a Offer.\n    @param size the size of the to-be-pinned file in bytes (rounded up).\n    @param billingPeriod the chosen period for billing.\n    @param agreementsReferencesToBePayedOut Agreements that are supposed to be terminated and should be payed-out and capacity freed up.\n    */\n    function newAgreement(bytes32[] memory dataReference, address provider, uint128 size, uint64 billingPeriod, bytes32[] memory agreementsReferencesToBePayedOut) public payable activeOffer(provider) {\n        require(billingPeriod != 0, \"StorageManager: Billing period of 0 not allowed\");\n        require(size > 0, \"StorageManager: Size has to be bigger then 0\");\n\n        Offer storage offer = offerRegistry[provider];\n        bytes32 agreementReference = getAgreementReference(dataReference, msg.sender);\n        Agreement storage agreement = offer.agreementRegistry[agreementReference];\n        require(agreement.lastPayoutDate == 0, \"StorageManager: Agreement already active\");\n\n        uint64 billingPrice = offer.billingPlans[billingPeriod];\n        require(billingPrice != 0, \"StorageManager: Billing price doesn't exist for Offer\");\n\n        // Adding to previous availableFunds as the agreement could have been expired\n        // and Consumer is reactivating it, so in order not to loose any previous funds.\n        agreement.availableFunds = agreement.availableFunds.add(msg.value);\n        require(agreement.availableFunds >= size * billingPrice, \"StorageManager: Funds deposited has to be for at least one billing period\");\n\n        agreement.size = size;\n        agreement.billingPrice = billingPrice;\n        agreement.billingPeriod = billingPeriod;\n\n        // Set to current time as no payout was made yet and this information is\n        // used to track spent funds.\n        agreement.lastPayoutDate = uint128(_time());\n\n        // Allow to enforce payout funds and close of agreements that are already expired,\n        // which should free needed capacity, if the capacity is becoming depleted.\n        if (agreementsReferencesToBePayedOut.length > 0) {\n            _payoutFunds(agreementsReferencesToBePayedOut, payable(provider));\n        }\n\n        offer = offerRegistry[provider];\n        offer.utilizedCapacity = uint128(offer.utilizedCapacity.add(size));\n        require(offer.utilizedCapacity <= offer.totalCapacity, \"StorageManager: Insufficient Offer's capacity\");\n\n        emit NewAgreement(\n            agreementReference,\n            dataReference,\n            msg.sender,\n            provider,\n            size,\n            billingPeriod,\n            billingPrice,\n            agreement.availableFunds\n        );\n    }\n\n    /**\n    >> FOR CONSUMER\n    @notice deposits new funds to the Agreement.\n    @dev\n        - depositing funds to Agreement that is linked to terminated Offer is not possible\n    @param dataReference data reference where should be deposited funds.\n    @param provider the address of the provider of the Offer.\n    */\n    function depositFunds(bytes32[] memory dataReference, address provider) public payable activeOffer(provider) existingAgreement(dataReference, provider) {\n        bytes32 agreementReference = getAgreementReference(dataReference, msg.sender);\n        Offer storage offer = offerRegistry[provider];\n        Agreement storage agreement = offer.agreementRegistry[agreementReference];\n\n        require(agreement.lastPayoutDate != 0, \"StorageManager: Agreement not active\");\n        require(offer.billingPlans[agreement.billingPeriod] != 0, \"StorageManager: Price not available anymore\");\n\n        agreement.availableFunds = agreement.availableFunds.add(msg.value);\n        emit AgreementFundsDeposited(agreementReference, msg.value);\n    }\n\n    /**\n    >> FOR CONSUMER\n    @notice withdraw funds from Agreement.\n    @dev\n        - if amount is zero then all withdrawable funds are transferred (eq. all available funds minus funds for still non-payed out periods and current period)\n        - if Agreement is terminated Consumer can withdraw all remaining funds\n    @param dataReference the data reference of agreement to be funds withdrawn from\n    @param provider the address of the provider of the Offer.\n    */\n    function withdrawFunds(bytes32[] memory dataReference, address provider, uint256 amount) public payable existingAgreement(dataReference, provider) {\n        Offer storage offer = offerRegistry[provider];\n        bytes32 agreementReference = getAgreementReference(dataReference, msg.sender);\n        Agreement storage agreement = offer.agreementRegistry[agreementReference];\n\n        uint256 maxWithdrawableFunds;\n        if (agreement.lastPayoutDate == 0) {\n            // Agreement is inactive, consumer can withdraw all funds\n            maxWithdrawableFunds = agreement.availableFunds;\n        } else {\n            // Consumer can withdraw all funds except for those already used for past storage hosting\n            // AND for current period\n            maxWithdrawableFunds = agreement.availableFunds - _calculateSpentFunds(agreement) - (agreement.billingPrice * agreement.size);\n        }\n\n        if (amount == 0) {\n            amount = maxWithdrawableFunds;\n        }\n\n        require(amount <= maxWithdrawableFunds, \"StorageManager: Amount is too big\");\n        agreement.availableFunds = agreement.availableFunds.sub(amount);\n\n        require(amount > 0, \"StorageManager: Nothing to withdraw\");\n        (bool success,) = msg.sender.call.value(amount)(\"\");\n        require(success, \"Transfer failed.\");\n\n        emit AgreementFundsWithdrawn(agreementReference, amount);\n    }\n\n    /**\n    >> FOR PROVIDER\n    @notice payout already earned funds of one or more Agreement\n    @dev \n    - Provider must call an expired agreement themselves as soon as the agreement is expired, to add back the capacity to their Offer.\n    @param agreementReferences reference to one or more Agreement\n    */\n    function payoutFunds(bytes32[] memory agreementReferences) public {\n        _payoutFunds(agreementReferences, msg.sender);\n    }\n\n    function _payoutFunds(bytes32[] memory agreementReferences, address payable provider) internal {\n        Offer storage offer = offerRegistry[provider];\n        uint256 toTransfer = 0;\n        for (uint8 i = 0; i < agreementReferences.length; i++) {\n            Agreement storage agreement = offer.agreementRegistry[agreementReferences[i]];\n            require(agreement.size != 0, \"StorageManager: Agreement for this Offer doesn't exist\");\n            // Was already payed out and terminated\n            require(agreement.lastPayoutDate != 0, \"StorageManager: Agreement is inactive\");\n\n            uint256 spentFunds = _calculateSpentFunds(agreement);\n            agreement.availableFunds = agreement.availableFunds.sub(spentFunds);\n            toTransfer = toTransfer.add(spentFunds);\n\n            // Agreement ran out of funds ==> Agreement is expiring\n            if (agreement.availableFunds < agreement.billingPrice * agreement.size) {\n                // Agreement becomes inactive\n                agreement.lastPayoutDate = 0;\n\n                // Add back capacity\n                offer.utilizedCapacity = offer.utilizedCapacity - agreement.size;\n                emit AgreementStopped(agreementReferences[i]);\n            } else {// Provider called this during active agreement which has still funds to run\n                agreement.lastPayoutDate = uint128(_time());\n            }\n\n            emit AgreementFundsPayout(agreementReferences[i], spentFunds);\n        }\n\n        require(toTransfer > 0, \"StorageManager: Nothing to withdraw\");\n        (bool success,) = provider.call.value(toTransfer)(\"\");\n        require(success, \"StorageManager: Transfer failed.\");\n    }\n\n    function getAgreementReference(bytes32[] memory dataReference, address creator) public pure returns (bytes32) {\n        return keccak256(abi.encodePacked(creator, dataReference));\n    }\n\n    function _calculateSpentFunds(Agreement memory agreement) internal view returns (uint256) {\n        // TODO: Can be most probably smaller then uint256\n        uint256 totalPeriodPrice = agreement.size * agreement.billingPrice;\n        uint256 periodsSinceLastPayout = (_time() - agreement.lastPayoutDate) / agreement.billingPeriod;\n        uint256 spentFunds = periodsSinceLastPayout * totalPeriodPrice;\n\n        // Round the funds based on the available funds\n        if (spentFunds > agreement.availableFunds) {\n            spentFunds = (agreement.availableFunds / totalPeriodPrice) * totalPeriodPrice;\n        }\n\n        return spentFunds;\n    }\n\n    /*\n    @dev Only non-zero prices periods are considered to be active. To remove a period, set it's price to 0\n    */\n    function _setBillingPlan(Offer storage offer, uint64 period, uint64 price) internal {\n        require(period <= MAX_BILLING_PERIOD, \"StorageManager: Billing period exceed max. length\");\n        offer.billingPlans[period] = price;\n        emit BillingPlanSet(msg.sender, period, price);\n    }\n\n    function _emitMessage(bytes32[] memory message) internal {\n        emit MessageEmitted(msg.sender, message);\n    }\n\n    /**\n    @dev Helper function for testing timing overloaded in testing contract\n    */\n    function _time() internal view virtual returns (uint) {\n        return now;\n    }\n}\n",
  "sourcePath": "/Users/adam/Projects/iovlabs/rds-contracts/contracts/StorageManager.sol",
  "compiler": {
    "name": "solc",
    "version": "0.6.2+commit.bacdbe57.Emscripten.clang"
  },
  "schemaVersion": "3.1.0",
  "updatedAt": "2020-04-30T07:33:59.345Z",
  "devdoc": {
    "author": "Rinke Hendriksen <rinke@iovlabs.org>Adam Uhlir <adam@iovlabs.org>",
    "methods": {
      "depositFunds(bytes32[],address)": {
        "details": "- depositing funds to Agreement that is linked to terminated Offer is not possible",
        "params": {
          "dataReference": "data reference where should be deposited funds.",
          "provider": "the address of the provider of the Offer."
        }
      },
      "emitMessage(bytes32[])": {
        "params": {
          "message": "the Provider may send a message (e.g. his nodeID). Message should be structured such that the first two bits specify the message type, followed with the message). 0x01 == nodeID"
        }
      },
      "newAgreement(bytes32[],address,uint128,uint64,bytes32[])": {
        "details": "- The to-be-pinned data reference's size in bytes (rounded up) must be equal in size to param size. - Provider can reject to pin data reference when it exceeds specified size. - The ownership of Agreement is enforced with agreementReference structure which is calculated as: hash(msg.sender, dataReference)",
        "params": {
          "agreementsReferencesToBePayedOut": "Agreements that are supposed to be terminated and should be payed-out and capacity freed up.",
          "billingPeriod": "the chosen period for billing.",
          "dataReference": "the reference to an Data Source, can be several things.",
          "provider": "the provider from which is proposed to take a Offer.",
          "size": "the size of the to-be-pinned file in bytes (rounded up)."
        }
      },
      "payoutFunds(bytes32[])": {
        "details": " - Provider must call an expired agreement themselves as soon as the agreement is expired, to add back the capacity to their Offer.",
        "params": {
          "agreementReferences": "reference to one or more Agreement"
        }
      },
      "setBillingPlans(uint64[],uint64[])": {
        "details": "- setting the price to 0 means that a particular period is not offered, which can be used to remove a period from the offer. - make sure that any period * prices does not cause an overflow, as this can never be accepted (REF_MAX_PRICE) and hence is pointless.",
        "params": {
          "billingPeriods": "the offered periods. Length must be equal to billingPrices.",
          "billingPrices": "the prices for the offered periods. Each entry at index corresponds to the same index at periods. 0 means that the particular period is not offered."
        }
      },
      "setOffer(uint128,uint64[],uint64[],bytes32[])": {
        "details": "- Use this function when initiating an Offer or when the users wants to change more than one parameter at once. - Exercise caution with assigning additional capacity when capacity is already taken. It may happen that when a lot of capacity is available and we release already-taken capacity, capacity overflows. We explicitly allow this overflow to happen on the smart-contract level, because the worst thing that can happen is that the provider now has less storage available than planned (in which case he can top it up himself). However, take care of this in the client. REF_CAPACITY - make sure that any period * prices does not cause an overflow, as this can never be accepted (REF_MAX_PRICE) and hence is pointless",
        "params": {
          "billingPeriods": "the offered periods. Length must be equal to the lenght of billingPrices.",
          "billingPrices": "the prices for the offered periods. Each entry at index corresponds to the same index at periods. When a price is 0, the matching period is not offered.",
          "capacity": "the amount of bytes offered. If already active before and set to 0, existing contracts can't be prolonged / re-started, no new contracts can be started.",
          "message": "the Provider may include a message (e.g. his nodeID).  Message should be structured such that the first two bits specify the message type, followed with the message). 0x01 == nodeID"
        }
      },
      "setTotalCapacity(uint128)": {
        "params": {
          "capacity": "the new capacity"
        }
      },
      "terminateOffer()": {
        "details": "no new Agreement can be created and no existing Agreement can be prolonged. All existing Agreement are still valid for the amount of periods still deposited."
      },
      "withdrawFunds(bytes32[],address,uint256)": {
        "details": "- if amount is zero then all withdrawable funds are transferred (eq. all available funds minus funds for still non-payed out periods and current period) - if Agreement is terminated Consumer can withdraw all remaining funds",
        "params": {
          "dataReference": "the data reference of agreement to be funds withdrawn from",
          "provider": "the address of the provider of the Offer."
        }
      }
    },
    "title": "StorageManager"
  },
  "userdoc": {
    "methods": {
      "depositFunds(bytes32[],address)": {
        "notice": ">> FOR CONSUMERdeposits new funds to the Agreement."
      },
      "emitMessage(bytes32[])": {
        "notice": ">> FOR PROVIDER"
      },
      "newAgreement(bytes32[],address,uint128,uint64,bytes32[])": {
        "notice": ">> FOR CONSUMERnew Agreement for given Offer"
      },
      "payoutFunds(bytes32[])": {
        "notice": ">> FOR PROVIDERpayout already earned funds of one or more Agreement"
      },
      "setBillingPlans(uint64[],uint64[])": {
        "notice": ">> FOR PROVIDERset the billing plans for an Offer."
      },
      "setOffer(uint128,uint64[],uint64[],bytes32[])": {
        "notice": ">> FOR PROVIDERset the totalCapacity and billingPlans of a Offer."
      },
      "setTotalCapacity(uint128)": {
        "notice": ">> FOR PROVIDERsets total capacity of Offer."
      },
      "terminateOffer()": {
        "notice": ">> FOR PROVIDERstops the Offer. It sets"
      },
      "withdrawFunds(bytes32[],address,uint256)": {
        "notice": ">> FOR CONSUMERwithdraw funds from Agreement."
      }
    },
    "notice": "Providers can offer their storage space and list their price and Consumers can take these offers"
  }
}