{
  "contractName": "TestStorageManager",
  "abi": [
    {
      "anonymous": false,
      "inputs": [
        {
          "indexed": true,
          "internalType": "bytes32",
          "name": "agreementReference",
          "type": "bytes32"
        },
        {
          "indexed": false,
          "internalType": "uint256",
          "name": "amount",
          "type": "uint256"
        }
      ],
      "name": "AgreementFundsDeposited",
      "type": "event"
    },
    {
      "anonymous": false,
      "inputs": [
        {
          "indexed": true,
          "internalType": "bytes32",
          "name": "agreementReference",
          "type": "bytes32"
        },
        {
          "indexed": false,
          "internalType": "uint256",
          "name": "amount",
          "type": "uint256"
        }
      ],
      "name": "AgreementFundsPayout",
      "type": "event"
    },
    {
      "anonymous": false,
      "inputs": [
        {
          "indexed": true,
          "internalType": "bytes32",
          "name": "agreementReference",
          "type": "bytes32"
        },
        {
          "indexed": false,
          "internalType": "uint256",
          "name": "amount",
          "type": "uint256"
        }
      ],
      "name": "AgreementFundsWithdrawn",
      "type": "event"
    },
    {
      "anonymous": false,
      "inputs": [
        {
          "indexed": true,
          "internalType": "bytes32",
          "name": "agreementReference",
          "type": "bytes32"
        }
      ],
      "name": "AgreementStopped",
      "type": "event"
    },
    {
      "anonymous": false,
      "inputs": [
        {
          "indexed": true,
          "internalType": "address",
          "name": "provider",
          "type": "address"
        },
        {
          "indexed": false,
          "internalType": "uint64",
          "name": "period",
          "type": "uint64"
        },
        {
          "indexed": false,
          "internalType": "uint64",
          "name": "price",
          "type": "uint64"
        }
      ],
      "name": "BillingPlanSet",
      "type": "event"
    },
    {
      "anonymous": false,
      "inputs": [
        {
          "indexed": true,
          "internalType": "address",
          "name": "provider",
          "type": "address"
        },
        {
          "indexed": false,
          "internalType": "bytes32[]",
          "name": "message",
          "type": "bytes32[]"
        }
      ],
      "name": "MessageEmitted",
      "type": "event"
    },
    {
      "anonymous": false,
      "inputs": [
        {
          "indexed": false,
          "internalType": "bytes32",
          "name": "agreementReference",
          "type": "bytes32"
        },
        {
          "indexed": false,
          "internalType": "bytes32[]",
          "name": "dataReference",
          "type": "bytes32[]"
        },
        {
          "indexed": true,
          "internalType": "address",
          "name": "agreementCreator",
          "type": "address"
        },
        {
          "indexed": true,
          "internalType": "address",
          "name": "provider",
          "type": "address"
        },
        {
          "indexed": false,
          "internalType": "uint128",
          "name": "size",
          "type": "uint128"
        },
        {
          "indexed": false,
          "internalType": "uint64",
          "name": "billingPeriod",
          "type": "uint64"
        },
        {
          "indexed": false,
          "internalType": "uint64",
          "name": "billingPrice",
          "type": "uint64"
        },
        {
          "indexed": false,
          "internalType": "uint256",
          "name": "availableFunds",
          "type": "uint256"
        }
      ],
      "name": "NewAgreement",
      "type": "event"
    },
    {
      "anonymous": false,
      "inputs": [
        {
          "indexed": true,
          "internalType": "address",
          "name": "provider",
          "type": "address"
        },
        {
          "indexed": false,
          "internalType": "uint128",
          "name": "capacity",
          "type": "uint128"
        }
      ],
      "name": "TotalCapacitySet",
      "type": "event"
    },
    {
      "inputs": [
        {
          "internalType": "bytes32[]",
          "name": "dataReference",
          "type": "bytes32[]"
        },
        {
          "internalType": "address",
          "name": "provider",
          "type": "address"
        }
      ],
      "name": "depositFunds",
      "outputs": [],
      "stateMutability": "payable",
      "type": "function"
    },
    {
      "inputs": [
        {
          "internalType": "bytes32[]",
          "name": "message",
          "type": "bytes32[]"
        }
      ],
      "name": "emitMessage",
      "outputs": [],
      "stateMutability": "nonpayable",
      "type": "function"
    },
    {
      "inputs": [
        {
          "internalType": "bytes32[]",
          "name": "dataReference",
          "type": "bytes32[]"
        },
        {
          "internalType": "address",
          "name": "creator",
          "type": "address"
        }
      ],
      "name": "getAgreementReference",
      "outputs": [
        {
          "internalType": "bytes32",
          "name": "",
          "type": "bytes32"
        }
      ],
      "stateMutability": "pure",
      "type": "function"
    },
    {
      "inputs": [
        {
          "internalType": "bytes32[]",
          "name": "dataReference",
          "type": "bytes32[]"
        },
        {
          "internalType": "address",
          "name": "provider",
          "type": "address"
        },
        {
          "internalType": "uint128",
          "name": "size",
          "type": "uint128"
        },
        {
          "internalType": "uint64",
          "name": "billingPeriod",
          "type": "uint64"
        },
        {
          "internalType": "bytes32[]",
          "name": "agreementsReferencesToBePayedOut",
          "type": "bytes32[]"
        }
      ],
      "name": "newAgreement",
      "outputs": [],
      "stateMutability": "payable",
      "type": "function"
    },
    {
      "inputs": [
        {
          "internalType": "address",
          "name": "",
          "type": "address"
        }
      ],
      "name": "offerRegistry",
      "outputs": [
        {
          "internalType": "uint128",
          "name": "utilizedCapacity",
          "type": "uint128"
        },
        {
          "internalType": "uint128",
          "name": "totalCapacity",
          "type": "uint128"
        }
      ],
      "stateMutability": "view",
      "type": "function"
    },
    {
      "inputs": [
        {
          "internalType": "bytes32[]",
          "name": "agreementReferences",
          "type": "bytes32[]"
        }
      ],
      "name": "payoutFunds",
      "outputs": [],
      "stateMutability": "nonpayable",
      "type": "function"
    },
    {
      "inputs": [
        {
          "internalType": "uint64[]",
          "name": "billingPeriods",
          "type": "uint64[]"
        },
        {
          "internalType": "uint64[]",
          "name": "billingPrices",
          "type": "uint64[]"
        }
      ],
      "name": "setBillingPlans",
      "outputs": [],
      "stateMutability": "nonpayable",
      "type": "function"
    },
    {
      "inputs": [
        {
          "internalType": "uint128",
          "name": "capacity",
          "type": "uint128"
        },
        {
          "internalType": "uint64[]",
          "name": "billingPeriods",
          "type": "uint64[]"
        },
        {
          "internalType": "uint64[]",
          "name": "billingPrices",
          "type": "uint64[]"
        },
        {
          "internalType": "bytes32[]",
          "name": "message",
          "type": "bytes32[]"
        }
      ],
      "name": "setOffer",
      "outputs": [],
      "stateMutability": "nonpayable",
      "type": "function"
    },
    {
      "inputs": [
        {
          "internalType": "uint128",
          "name": "capacity",
          "type": "uint128"
        }
      ],
      "name": "setTotalCapacity",
      "outputs": [],
      "stateMutability": "nonpayable",
      "type": "function"
    },
    {
      "inputs": [],
      "name": "terminateOffer",
      "outputs": [],
      "stateMutability": "nonpayable",
      "type": "function"
    },
    {
      "inputs": [
        {
          "internalType": "bytes32[]",
          "name": "dataReference",
          "type": "bytes32[]"
        },
        {
          "internalType": "address",
          "name": "provider",
          "type": "address"
        },
        {
          "internalType": "uint256",
          "name": "amount",
          "type": "uint256"
        }
      ],
      "name": "withdrawFunds",
      "outputs": [],
      "stateMutability": "payable",
      "type": "function"
    },
    {
      "inputs": [
        {
          "internalType": "uint256",
          "name": "increment",
          "type": "uint256"
        }
      ],
      "name": "incrementTime",
      "outputs": [],
      "stateMutability": "nonpayable",
      "type": "function"
    },
    {
      "inputs": [
        {
          "internalType": "uint256",
          "name": "newTime",
          "type": "uint256"
        }
      ],
      "name": "setTime",
      "outputs": [],
      "stateMutability": "nonpayable",
      "type": "function"
    },
    {
      "inputs": [
        {
          "internalType": "address",
          "name": "provider",
          "type": "address"
        }
      ],
      "name": "getOfferUtilizedCapacity",
      "outputs": [
        {
          "internalType": "uint256",
          "name": "",
          "type": "uint256"
        }
      ],
      "stateMutability": "view",
      "type": "function"
    }
  ],
  "bytecode": "0x608060405234801561001057600080fd5b5061326a806100206000396000f3fe6080604052600436106100dd5760003560e01c8063781542d31161007f578063b585969311610059578063b58596931461079e578063ba10a1e0146107b5578063f04c898b1461090e578063fb29591214610a07576100dd565b8063781542d3146105bb5780638f5c5fc81461069d578063b4d6273e14610751576100dd565b80633beb26c4116100bb5780633beb26c4146102d1578063699ca55f1461030c578063754347c31461034757806377d97feb146104e3576100dd565b8063020f6c74146100e257806327beac27146101a75780632fd09ef91461020c575b600080fd5b3480156100ee57600080fd5b506101a56004803603602081101561010557600080fd5b810190808035906020019064010000000081111561012257600080fd5b82018360208201111561013457600080fd5b8035906020019184602083028401116401000000008311171561015657600080fd5b919080806020026020016040519081016040528093929190818152602001838360200280828437600081840152601f19601f820116905080830192505050505050509192919290505050610c10565b005b3480156101b357600080fd5b506101f6600480360360208110156101ca57600080fd5b81019080803573ffffffffffffffffffffffffffffffffffffffff169060200190929190505050610c1d565b6040518082815260200191505060405180910390f35b34801561021857600080fd5b506102cf6004803603602081101561022f57600080fd5b810190808035906020019064010000000081111561024c57600080fd5b82018360208201111561025e57600080fd5b8035906020019184602083028401116401000000008311171561028057600080fd5b919080806020026020016040519081016040528093929190818152602001838360200280828437600081840152601f19601f820116905080830192505050505050509192919290505050610c96565b005b3480156102dd57600080fd5b5061030a600480360360208110156102f457600080fd5b8101908080359060200190929190505050610ca2565b005b34801561031857600080fd5b506103456004803603602081101561032f57600080fd5b8101908080359060200190929190505050610cac565b005b6104e1600480360360a081101561035d57600080fd5b810190808035906020019064010000000081111561037a57600080fd5b82018360208201111561038c57600080fd5b803590602001918460208302840111640100000000831117156103ae57600080fd5b919080806020026020016040519081016040528093929190818152602001838360200280828437600081840152601f19601f820116905080830192505050505050509192919290803573ffffffffffffffffffffffffffffffffffffffff16906020019092919080356fffffffffffffffffffffffffffffffff169060200190929190803567ffffffffffffffff1690602001909291908035906020019064010000000081111561045e57600080fd5b82018360208201111561047057600080fd5b8035906020019184602083028401116401000000008311171561049257600080fd5b919080806020026020016040519081016040528093929190818152602001838360200280828437600081840152601f19601f820116905080830192505050505050509192919290505050610cba565b005b6105b9600480360360408110156104f957600080fd5b810190808035906020019064010000000081111561051657600080fd5b82018360208201111561052857600080fd5b8035906020019184602083028401116401000000008311171561054a57600080fd5b919080806020026020016040519081016040528093929190818152602001838360200280828437600081840152601f19601f820116905080830192505050505050509192919290803573ffffffffffffffffffffffffffffffffffffffff16906020019092919050505061142d565b005b61069b600480360360608110156105d157600080fd5b81019080803590602001906401000000008111156105ee57600080fd5b82018360208201111561060057600080fd5b8035906020019184602083028401116401000000008311171561062257600080fd5b919080806020026020016040519081016040528093929190818152602001838360200280828437600081840152601f19601f820116905080830192505050505050509192919290803573ffffffffffffffffffffffffffffffffffffffff16906020019092919080359060200190929190505050611806565b005b3480156106a957600080fd5b506106ec600480360360208110156106c057600080fd5b81019080803573ffffffffffffffffffffffffffffffffffffffff169060200190929190505050611d26565b60405180836fffffffffffffffffffffffffffffffff166fffffffffffffffffffffffffffffffff168152602001826fffffffffffffffffffffffffffffffff166fffffffffffffffffffffffffffffffff1681526020019250505060405180910390f35b34801561075d57600080fd5b5061079c6004803603602081101561077457600080fd5b8101908080356fffffffffffffffffffffffffffffffff169060200190929190505050611d82565b005b3480156107aa57600080fd5b506107b3611ee1565b005b3480156107c157600080fd5b5061090c600480360360408110156107d857600080fd5b81019080803590602001906401000000008111156107f557600080fd5b82018360208201111561080757600080fd5b8035906020019184602083028401116401000000008311171561082957600080fd5b919080806020026020016040519081016040528093929190818152602001838360200280828437600081840152601f19601f8201169050808301925050505050505091929192908035906020019064010000000081111561088957600080fd5b82018360208201111561089b57600080fd5b803590602001918460208302840111640100000000831117156108bd57600080fd5b919080806020026020016040519081016040528093929190818152602001838360200280828437600081840152601f19601f820116905080830192505050505050509192919290505050612094565b005b34801561091a57600080fd5b506109f16004803603604081101561093157600080fd5b810190808035906020019064010000000081111561094e57600080fd5b82018360208201111561096057600080fd5b8035906020019184602083028401116401000000008311171561098257600080fd5b919080806020026020016040519081016040528093929190818152602001838360200280828437600081840152601f19601f820116905080830192505050505050509192919290803573ffffffffffffffffffffffffffffffffffffffff1690602001909291905050506122b7565b6040518082815260200191505060405180910390f35b348015610a1357600080fd5b50610c0e60048036036080811015610a2a57600080fd5b8101908080356fffffffffffffffffffffffffffffffff16906020019092919080359060200190640100000000811115610a6357600080fd5b820183602082011115610a7557600080fd5b80359060200191846020830284011164010000000083111715610a9757600080fd5b919080806020026020016040519081016040528093929190818152602001838360200280828437600081840152601f19601f82011690508083019250505050505050919291929080359060200190640100000000811115610af757600080fd5b820183602082011115610b0957600080fd5b80359060200191846020830284011164010000000083111715610b2b57600080fd5b919080806020026020016040519081016040528093929190818152602001838360200280828437600081840152601f19601f82011690508083019250505050505050919291929080359060200190640100000000811115610b8b57600080fd5b820183602082011115610b9d57600080fd5b80359060200191846020830284011164010000000083111715610bbf57600080fd5b919080806020026020016040519081016040528093929190818152602001838360200280828437600081840152601f19601f82011690508083019250505050505050919291929050505061234c565b005b610c1a81336124bd565b50565b60008060008373ffffffffffffffffffffffffffffffffffffffff1673ffffffffffffffffffffffffffffffffffffffff16815260200190815260200160002060000160009054906101000a90046fffffffffffffffffffffffffffffffff166fffffffffffffffffffffffffffffffff169050919050565b610c9f81612aeb565b50565b8060018190555050565b806001540160018190555050565b8360008060008373ffffffffffffffffffffffffffffffffffffffff1673ffffffffffffffffffffffffffffffffffffffff168152602001908152602001600020905060008160000160109054906101000a90046fffffffffffffffffffffffffffffffff166fffffffffffffffffffffffffffffffff161415610d89576040517f08c379a0000000000000000000000000000000000000000000000000000000008152600401808060200182810382526035815260200180612fb16035913960400191505060405180910390fd5b60008467ffffffffffffffff161415610ded576040517f08c379a000000000000000000000000000000000000000000000000000000000815260040180806020018281038252602f815260200180612f51602f913960400191505060405180910390fd5b6000856fffffffffffffffffffffffffffffffff1611610e58576040517f08c379a000000000000000000000000000000000000000000000000000000000815260040180806020018281038252602c8152602001806130a0602c913960400191505060405180910390fd5b60008060008873ffffffffffffffffffffffffffffffffffffffff1673ffffffffffffffffffffffffffffffffffffffff16815260200190815260200160002090506000610ea689336122b7565b90506000826002016000838152602001908152602001600020905060008160020160109054906101000a90046fffffffffffffffffffffffffffffffff166fffffffffffffffffffffffffffffffff1614610f4c576040517f08c379a00000000000000000000000000000000000000000000000000000000081526004018080602001828103825260288152602001806131516028913960400191505060405180910390fd5b60008360010160008967ffffffffffffffff1667ffffffffffffffff16815260200190815260200160002060009054906101000a900467ffffffffffffffff16905060008167ffffffffffffffff161415610ff2576040517f08c379a00000000000000000000000000000000000000000000000000000000081526004018080602001828103825260358152602001806132006035913960400191505060405180910390fd5b611009348360010154612b7d90919063ffffffff16565b82600101819055508067ffffffffffffffff1689026fffffffffffffffffffffffffffffffff168260010154101561108c576040517f08c379a000000000000000000000000000000000000000000000000000000000815260040180806020018281038252604981526020018061302a6049913960600191505060405180910390fd5b888260020160006101000a8154816fffffffffffffffffffffffffffffffff02191690836fffffffffffffffffffffffffffffffff160217905550808260000160006101000a81548167ffffffffffffffff021916908367ffffffffffffffff160217905550878260000160086101000a81548167ffffffffffffffff021916908367ffffffffffffffff160217905550611125612c05565b8260020160106101000a8154816fffffffffffffffffffffffffffffffff02191690836fffffffffffffffffffffffffffffffff16021790555060008751111561117457611173878b6124bd565b5b6000808b73ffffffffffffffffffffffffffffffffffffffff1673ffffffffffffffffffffffffffffffffffffffff168152602001908152602001600020935061120b896fffffffffffffffffffffffffffffffff168560000160009054906101000a90046fffffffffffffffffffffffffffffffff166fffffffffffffffffffffffffffffffff16612b7d90919063ffffffff16565b8460000160006101000a8154816fffffffffffffffffffffffffffffffff02191690836fffffffffffffffffffffffffffffffff1602179055508360000160109054906101000a90046fffffffffffffffffffffffffffffffff166fffffffffffffffffffffffffffffffff168460000160009054906101000a90046fffffffffffffffffffffffffffffffff166fffffffffffffffffffffffffffffffff161115611302576040517f08c379a000000000000000000000000000000000000000000000000000000000815260040180806020018281038252602d815260200180613073602d913960400191505060405180910390fd5b8973ffffffffffffffffffffffffffffffffffffffff163373ffffffffffffffffffffffffffffffffffffffff167fc6cb14b4af81c8a949cb6c23fab93f1bda9df891d699331ec927044a1e2e93c1858e8d8d8789600101546040518087815260200180602001866fffffffffffffffffffffffffffffffff166fffffffffffffffffffffffffffffffff1681526020018567ffffffffffffffff1667ffffffffffffffff1681526020018467ffffffffffffffff1667ffffffffffffffff168152602001838152602001828103825287818151815260200191508051906020019060200280838360005b838110156114085780820151818401526020810190506113ed565b5050505090500197505050505050505060405180910390a35050505050505050505050565b8060008060008373ffffffffffffffffffffffffffffffffffffffff1673ffffffffffffffffffffffffffffffffffffffff168152602001908152602001600020905060008160000160109054906101000a90046fffffffffffffffffffffffffffffffff166fffffffffffffffffffffffffffffffff1614156114fc576040517f08c379a0000000000000000000000000000000000000000000000000000000008152600401808060200182810382526035815260200180612fb16035913960400191505060405180910390fd5b838360008060008373ffffffffffffffffffffffffffffffffffffffff1673ffffffffffffffffffffffffffffffffffffffff1681526020019081526020016000209050600061154c84336122b7565b90506000826002016000838152602001908152602001600020905060008160020160009054906101000a90046fffffffffffffffffffffffffffffffff166fffffffffffffffffffffffffffffffff1614156115f3576040517f08c379a00000000000000000000000000000000000000000000000000000000081526004018080602001828103825260368152602001806130f76036913960400191505060405180910390fd5b60006115ff8a336122b7565b905060008060008b73ffffffffffffffffffffffffffffffffffffffff1673ffffffffffffffffffffffffffffffffffffffff16815260200190815260200160002090506000816002016000848152602001908152602001600020905060008160020160109054906101000a90046fffffffffffffffffffffffffffffffff166fffffffffffffffffffffffffffffffff1614156116e8576040517f08c379a000000000000000000000000000000000000000000000000000000000815260040180806020018281038252602481526020018061312d6024913960400191505060405180910390fd5b60008260010160008360000160089054906101000a900467ffffffffffffffff1667ffffffffffffffff1667ffffffffffffffff16815260200190815260200160002060009054906101000a900467ffffffffffffffff1667ffffffffffffffff1614156117a1576040517f08c379a000000000000000000000000000000000000000000000000000000000815260040180806020018281038252602b8152602001806130cc602b913960400191505060405180910390fd5b6117b8348260010154612b7d90919063ffffffff16565b8160010181905550827f642834973b6a33d6361521d505770b0a82d783d94aa057e125e4f01f3c8ac388346040518082815260200191505060405180910390a2505050505050505050505050565b828260008060008373ffffffffffffffffffffffffffffffffffffffff1673ffffffffffffffffffffffffffffffffffffffff1681526020019081526020016000209050600061185684336122b7565b90506000826002016000838152602001908152602001600020905060008160020160009054906101000a90046fffffffffffffffffffffffffffffffff166fffffffffffffffffffffffffffffffff1614156118fd576040517f08c379a00000000000000000000000000000000000000000000000000000000081526004018080602001828103825260368152602001806130f76036913960400191505060405180910390fd5b60008060008973ffffffffffffffffffffffffffffffffffffffff1673ffffffffffffffffffffffffffffffffffffffff1681526020019081526020016000209050600061194b8a336122b7565b9050600082600201600083815260200190815260200160002090506000808260020160109054906101000a90046fffffffffffffffffffffffffffffffff166fffffffffffffffffffffffffffffffff1614156119ae5781600101549050611b25565b8160020160009054906101000a90046fffffffffffffffffffffffffffffffff168260000160009054906101000a900467ffffffffffffffff1667ffffffffffffffff16026fffffffffffffffffffffffffffffffff16611b1b836040518060a00160405290816000820160009054906101000a900467ffffffffffffffff1667ffffffffffffffff1667ffffffffffffffff1681526020016000820160089054906101000a900467ffffffffffffffff1667ffffffffffffffff1667ffffffffffffffff168152602001600182015481526020016002820160009054906101000a90046fffffffffffffffffffffffffffffffff166fffffffffffffffffffffffffffffffff166fffffffffffffffffffffffffffffffff1681526020016002820160109054906101000a90046fffffffffffffffffffffffffffffffff166fffffffffffffffffffffffffffffffff166fffffffffffffffffffffffffffffffff1681525050612c22565b8360010154030390505b60008a1415611b32578099505b808a1115611b8b576040517f08c379a0000000000000000000000000000000000000000000000000000000008152600401808060200182810382526021815260200180612fe66021913960400191505060405180910390fd5b611ba28a8360010154612cba90919063ffffffff16565b826001018190555060008a11611c03576040517f08c379a00000000000000000000000000000000000000000000000000000000081526004018080602001828103825260238152602001806130076023913960400191505060405180910390fd5b60003373ffffffffffffffffffffffffffffffffffffffff168b60405180600001905060006040518083038185875af1925050503d8060008114611c63576040519150601f19603f3d011682016040523d82523d6000602084013e611c68565b606091505b5050905080611cdf576040517f08c379a00000000000000000000000000000000000000000000000000000000081526004018080602001828103825260108152602001807f5472616e73666572206661696c65642e0000000000000000000000000000000081525060200191505060405180910390fd5b837fb0a67554221bac7cd8600d6718cbf9d810a5861dac56510b0cc5950d8c459f6b8c6040518082815260200191505060405180910390a250505050505050505050505050565b60006020528060005260406000206000915090508060000160009054906101000a90046fffffffffffffffffffffffffffffffff16908060000160109054906101000a90046fffffffffffffffffffffffffffffffff16905082565b6000816fffffffffffffffffffffffffffffffff161415611dee576040517f08c379a00000000000000000000000000000000000000000000000000000000081526004018080602001828103825260348152602001806131a76034913960400191505060405180910390fd5b60008060003373ffffffffffffffffffffffffffffffffffffffff1673ffffffffffffffffffffffffffffffffffffffff1681526020019081526020016000209050818160000160106101000a8154816fffffffffffffffffffffffffffffffff02191690836fffffffffffffffffffffffffffffffff1602179055503373ffffffffffffffffffffffffffffffffffffffff167f80ee1396a7850602e7f8471e9e7c3eabfca1b79d20e9055b9e1885f689eb81798360405180826fffffffffffffffffffffffffffffffff166fffffffffffffffffffffffffffffffff16815260200191505060405180910390a25050565b3360008060008373ffffffffffffffffffffffffffffffffffffffff1673ffffffffffffffffffffffffffffffffffffffff168152602001908152602001600020905060008160000160109054906101000a90046fffffffffffffffffffffffffffffffff166fffffffffffffffffffffffffffffffff161415611fb0576040517f08c379a0000000000000000000000000000000000000000000000000000000008152600401808060200182810382526035815260200180612fb16035913960400191505060405180910390fd5b60008060003373ffffffffffffffffffffffffffffffffffffffff1673ffffffffffffffffffffffffffffffffffffffff168152602001908152602001600020905060008160000160106101000a8154816fffffffffffffffffffffffffffffffff02191690836fffffffffffffffffffffffffffffffff1602179055503373ffffffffffffffffffffffffffffffffffffffff167f80ee1396a7850602e7f8471e9e7c3eabfca1b79d20e9055b9e1885f689eb8179600060405180826fffffffffffffffffffffffffffffffff16815260200191505060405180910390a2505050565b3360008060008373ffffffffffffffffffffffffffffffffffffffff1673ffffffffffffffffffffffffffffffffffffffff168152602001908152602001600020905060008160000160109054906101000a90046fffffffffffffffffffffffffffffffff166fffffffffffffffffffffffffffffffff161415612163576040517f08c379a0000000000000000000000000000000000000000000000000000000008152600401808060200182810382526035815260200180612fb16035913960400191505060405180910390fd5b60008451116121bd576040517f08c379a000000000000000000000000000000000000000000000000000000000815260040180806020018281038252602e815260200180613179602e913960400191505060405180910390fd5b8251845114612217576040517f08c379a0000000000000000000000000000000000000000000000000000000008152600401808060200182810382526049815260200180612f086049913960600191505060405180910390fd5b60008060003373ffffffffffffffffffffffffffffffffffffffff1673ffffffffffffffffffffffffffffffffffffffff168152602001908152602001600020905060008090505b85518160ff1610156122af576122a282878360ff168151811061227e57fe5b6020026020010151878460ff168151811061229557fe5b6020026020010151612d04565b808060010191505061225f565b505050505050565b60008183604051602001808373ffffffffffffffffffffffffffffffffffffffff1673ffffffffffffffffffffffffffffffffffffffff1660601b8152601401828051906020019060200280838360005b83811015612323578082015181840152602081019050612308565b505050509050019250505060405160208183030381529060405280519060200120905092915050565b60008060003373ffffffffffffffffffffffffffffffffffffffff1673ffffffffffffffffffffffffffffffffffffffff168152602001908152602001600020905061239785611d82565b60008451116123f1576040517f08c379a000000000000000000000000000000000000000000000000000000000815260040180806020018281038252602e815260200180613179602e913960400191505060405180910390fd5b825184511461244b576040517f08c379a0000000000000000000000000000000000000000000000000000000008152600401808060200182810382526049815260200180612f086049913960600191505060405180910390fd5b60008090505b84518160ff1610156124a15761249482868360ff168151811061247057fe5b6020026020010151868460ff168151811061248757fe5b6020026020010151612d04565b8080600101915050612451565b506000825111156124b6576124b582612aeb565b5b5050505050565b60008060008373ffffffffffffffffffffffffffffffffffffffff1673ffffffffffffffffffffffffffffffffffffffff1681526020019081526020016000209050600080905060008090505b84518160ff1610156129ae576000836002016000878460ff168151811061252d57fe5b60200260200101518152602001908152602001600020905060008160020160009054906101000a90046fffffffffffffffffffffffffffffffff166fffffffffffffffffffffffffffffffff1614156125d1576040517f08c379a00000000000000000000000000000000000000000000000000000000081526004018080602001828103825260368152602001806130f76036913960400191505060405180910390fd5b60008160020160109054906101000a90046fffffffffffffffffffffffffffffffff166fffffffffffffffffffffffffffffffff16141561265d576040517f08c379a00000000000000000000000000000000000000000000000000000000081526004018080602001828103825260258152602001806131db6025913960400191505060405180910390fd5b6000612775826040518060a00160405290816000820160009054906101000a900467ffffffffffffffff1667ffffffffffffffff1667ffffffffffffffff1681526020016000820160089054906101000a900467ffffffffffffffff1667ffffffffffffffff1667ffffffffffffffff168152602001600182015481526020016002820160009054906101000a90046fffffffffffffffffffffffffffffffff166fffffffffffffffffffffffffffffffff166fffffffffffffffffffffffffffffffff1681526020016002820160109054906101000a90046fffffffffffffffffffffffffffffffff166fffffffffffffffffffffffffffffffff166fffffffffffffffffffffffffffffffff1681525050612c22565b905061278e818360010154612cba90919063ffffffff16565b82600101819055506127a98185612b7d90919063ffffffff16565b93508160020160009054906101000a90046fffffffffffffffffffffffffffffffff168260000160009054906101000a900467ffffffffffffffff1667ffffffffffffffff16026fffffffffffffffffffffffffffffffff168260010154101561290e5760008260020160106101000a8154816fffffffffffffffffffffffffffffffff02191690836fffffffffffffffffffffffffffffffff1602179055508160020160009054906101000a90046fffffffffffffffffffffffffffffffff168560000160009054906101000a90046fffffffffffffffffffffffffffffffff16038560000160006101000a8154816fffffffffffffffffffffffffffffffff02191690836fffffffffffffffffffffffffffffffff160217905550868360ff16815181106128d557fe5b60200260200101517f28b8eb5ccfb9c485b6ee9be3b0153679351f87ca0753786218a455bc3bbe5fdf60405160405180910390a2612951565b612916612c05565b8260020160106101000a8154816fffffffffffffffffffffffffffffffff02191690836fffffffffffffffffffffffffffffffff1602179055505b868360ff168151811061296057fe5b60200260200101517f9d3a0426e996245d7bac3a65ff1a596f72a9b3051ebb8fdb1e2e62071e930f93826040518082815260200191505060405180910390a25050808060010191505061250a565b5060008111612a08576040517f08c379a00000000000000000000000000000000000000000000000000000000081526004018080602001828103825260238152602001806130076023913960400191505060405180910390fd5b60008373ffffffffffffffffffffffffffffffffffffffff168260405180600001905060006040518083038185875af1925050503d8060008114612a68576040519150601f19603f3d011682016040523d82523d6000602084013e612a6d565b606091505b5050905080612ae4576040517f08c379a00000000000000000000000000000000000000000000000000000000081526004018080602001828103825260208152602001807f53746f726167654d616e616765723a205472616e73666572206661696c65642e81525060200191505060405180910390fd5b5050505050565b3373ffffffffffffffffffffffffffffffffffffffff167f8e9ae80d46259102dfbf4ae6121dbe6548e85c8c0494163e8e0bf0e87bcd5876826040518080602001828103825283818151815260200191508051906020019060200280838360005b83811015612b67578082015181840152602081019050612b4c565b505050509050019250505060405180910390a250565b600080828401905083811015612bfb576040517f08c379a000000000000000000000000000000000000000000000000000000000815260040180806020018281038252601b8152602001807f536166654d6174683a206164646974696f6e206f766572666c6f77000000000081525060200191505060405180910390fd5b8091505092915050565b6000806001541415612c1957429050612c1f565b60015490505b90565b600080826000015167ffffffffffffffff168360600151026fffffffffffffffffffffffffffffffff1690506000836020015167ffffffffffffffff1684608001516fffffffffffffffffffffffffffffffff16612c7e612c05565b0381612c8657fe5b049050600082820290508460400151811115612caf578283866040015181612caa57fe5b040290505b809350505050919050565b6000612cfc83836040518060400160405280601e81526020017f536166654d6174683a207375627472616374696f6e206f766572666c6f770000815250612e47565b905092915050565b62ed4e0067ffffffffffffffff168267ffffffffffffffff161115612d74576040517f08c379a0000000000000000000000000000000000000000000000000000000008152600401808060200182810382526031815260200180612f806031913960400191505060405180910390fd5b808360010160008467ffffffffffffffff1667ffffffffffffffff16815260200190815260200160002060006101000a81548167ffffffffffffffff021916908367ffffffffffffffff1602179055503373ffffffffffffffffffffffffffffffffffffffff167fb178a96fffb23bde93e06bc8bf7a7f2046791fc0f35babd9bf32c3f77828b77f8383604051808367ffffffffffffffff1667ffffffffffffffff1681526020018267ffffffffffffffff1667ffffffffffffffff1681526020019250505060405180910390a2505050565b6000838311158290612ef4576040517f08c379a00000000000000000000000000000000000000000000000000000000081526004018080602001828103825283818151815260200191508051906020019080838360005b83811015612eb9578082015181840152602081019050612e9e565b50505050905090810190601f168015612ee65780820380516001836020036101000a031916815260200191505b509250505060405180910390fd5b506000838503905080915050939250505056fe53746f726167654d616e616765723a2042696c6c696e6720706c616e73206172726179206c656e6774682068617320746f20657175616c20746f2062696c6c696e672070726963657353746f726167654d616e616765723a2042696c6c696e6720706572696f64206f662030206e6f7420616c6c6f77656453746f726167654d616e616765723a2042696c6c696e6720706572696f6420657863656564206d61782e206c656e67746853746f726167654d616e616765723a204f6666657220666f7220746869732050726f766964657220646f65736e277420657869737453746f726167654d616e616765723a20416d6f756e7420697320746f6f2062696753746f726167654d616e616765723a204e6f7468696e6720746f20776974686472617753746f726167654d616e616765723a2046756e6473206465706f73697465642068617320746f20626520666f72206174206c65617374206f6e652062696c6c696e6720706572696f6453746f726167654d616e616765723a20496e73756666696369656e74204f66666572277320636170616369747953746f726167654d616e616765723a2053697a652068617320746f20626520626967676572207468656e203053746f726167654d616e616765723a205072696365206e6f7420617661696c61626c6520616e796d6f726553746f726167654d616e616765723a2041677265656d656e7420666f722074686973204f6666657220646f65736e277420657869737453746f726167654d616e616765723a2041677265656d656e74206e6f742061637469766553746f726167654d616e616765723a2041677265656d656e7420616c72656164792061637469766553746f726167654d616e616765723a204f66666572206e6565647320736f6d652062696c6c696e6720706c616e7353746f726167654d616e616765723a2043617061636974792068617320746f2062652067726561746572207468656e207a65726f53746f726167654d616e616765723a2041677265656d656e7420697320696e61637469766553746f726167654d616e616765723a2042696c6c696e6720707269636520646f65736e277420657869737420666f72204f66666572a26469706673582212207b79af70243d4328893c10ea53979ae37504ddd6d9e888eb3011192c25a1435964736f6c63430006020033",
  "source": "pragma solidity 0.6.2;\n\nimport \"./StorageManager.sol\";\n\ncontract TestStorageManager is StorageManager {\n    uint time;\n\n    function _time() internal view override returns (uint) {\n        if(time == 0){\n            return now;\n        }\n\n        return time;\n    }\n\n    function incrementTime(uint increment) public {\n        time = time + increment;\n    }\n\n    function setTime(uint newTime) public {\n        time = newTime;\n    }\n\n    function getOfferUtilizedCapacity(address provider) public view returns (uint) {\n        return offerRegistry[provider].utilizedCapacity;\n    }\n}\n",
  "sourcePath": "/Users/adam/Projects/iovlabs/rds-contracts/contracts/TestStorageManager.sol",
  "compiler": {
    "name": "solc",
    "version": "0.6.2+commit.bacdbe57.Emscripten.clang"
  },
  "schemaVersion": "3.1.0",
  "updatedAt": "2020-04-30T07:33:59.357Z",
  "devdoc": {
    "methods": {
      "depositFunds(bytes32[],address)": {
        "details": "- depositing funds to Agreement that is linked to terminated Offer is not possible",
        "params": {
          "dataReference": "data reference where should be deposited funds.",
          "provider": "the address of the provider of the Offer."
        }
      },
      "emitMessage(bytes32[])": {
        "params": {
          "message": "the Provider may send a message (e.g. his nodeID). Message should be structured such that the first two bits specify the message type, followed with the message). 0x01 == nodeID"
        }
      },
      "newAgreement(bytes32[],address,uint128,uint64,bytes32[])": {
        "details": "- The to-be-pinned data reference's size in bytes (rounded up) must be equal in size to param size. - Provider can reject to pin data reference when it exceeds specified size. - The ownership of Agreement is enforced with agreementReference structure which is calculated as: hash(msg.sender, dataReference)",
        "params": {
          "agreementsReferencesToBePayedOut": "Agreements that are supposed to be terminated and should be payed-out and capacity freed up.",
          "billingPeriod": "the chosen period for billing.",
          "dataReference": "the reference to an Data Source, can be several things.",
          "provider": "the provider from which is proposed to take a Offer.",
          "size": "the size of the to-be-pinned file in bytes (rounded up)."
        }
      },
      "payoutFunds(bytes32[])": {
        "details": " - Provider must call an expired agreement themselves as soon as the agreement is expired, to add back the capacity to their Offer.",
        "params": {
          "agreementReferences": "reference to one or more Agreement"
        }
      },
      "setBillingPlans(uint64[],uint64[])": {
        "details": "- setting the price to 0 means that a particular period is not offered, which can be used to remove a period from the offer. - make sure that any period * prices does not cause an overflow, as this can never be accepted (REF_MAX_PRICE) and hence is pointless.",
        "params": {
          "billingPeriods": "the offered periods. Length must be equal to billingPrices.",
          "billingPrices": "the prices for the offered periods. Each entry at index corresponds to the same index at periods. 0 means that the particular period is not offered."
        }
      },
      "setOffer(uint128,uint64[],uint64[],bytes32[])": {
        "details": "- Use this function when initiating an Offer or when the users wants to change more than one parameter at once. - Exercise caution with assigning additional capacity when capacity is already taken. It may happen that when a lot of capacity is available and we release already-taken capacity, capacity overflows. We explicitly allow this overflow to happen on the smart-contract level, because the worst thing that can happen is that the provider now has less storage available than planned (in which case he can top it up himself). However, take care of this in the client. REF_CAPACITY - make sure that any period * prices does not cause an overflow, as this can never be accepted (REF_MAX_PRICE) and hence is pointless",
        "params": {
          "billingPeriods": "the offered periods. Length must be equal to the lenght of billingPrices.",
          "billingPrices": "the prices for the offered periods. Each entry at index corresponds to the same index at periods. When a price is 0, the matching period is not offered.",
          "capacity": "the amount of bytes offered. If already active before and set to 0, existing contracts can't be prolonged / re-started, no new contracts can be started.",
          "message": "the Provider may include a message (e.g. his nodeID).  Message should be structured such that the first two bits specify the message type, followed with the message). 0x01 == nodeID"
        }
      },
      "setTotalCapacity(uint128)": {
        "params": {
          "capacity": "the new capacity"
        }
      },
      "terminateOffer()": {
        "details": "no new Agreement can be created and no existing Agreement can be prolonged. All existing Agreement are still valid for the amount of periods still deposited."
      },
      "withdrawFunds(bytes32[],address,uint256)": {
        "details": "- if amount is zero then all withdrawable funds are transferred (eq. all available funds minus funds for still non-payed out periods and current period) - if Agreement is terminated Consumer can withdraw all remaining funds",
        "params": {
          "dataReference": "the data reference of agreement to be funds withdrawn from",
          "provider": "the address of the provider of the Offer."
        }
      }
    }
  },
  "userdoc": {
    "methods": {
      "depositFunds(bytes32[],address)": {
        "notice": ">> FOR CONSUMERdeposits new funds to the Agreement."
      },
      "emitMessage(bytes32[])": {
        "notice": ">> FOR PROVIDER"
      },
      "newAgreement(bytes32[],address,uint128,uint64,bytes32[])": {
        "notice": ">> FOR CONSUMERnew Agreement for given Offer"
      },
      "payoutFunds(bytes32[])": {
        "notice": ">> FOR PROVIDERpayout already earned funds of one or more Agreement"
      },
      "setBillingPlans(uint64[],uint64[])": {
        "notice": ">> FOR PROVIDERset the billing plans for an Offer."
      },
      "setOffer(uint128,uint64[],uint64[],bytes32[])": {
        "notice": ">> FOR PROVIDERset the totalCapacity and billingPlans of a Offer."
      },
      "setTotalCapacity(uint128)": {
        "notice": ">> FOR PROVIDERsets total capacity of Offer."
      },
      "terminateOffer()": {
        "notice": ">> FOR PROVIDERstops the Offer. It sets"
      },
      "withdrawFunds(bytes32[],address,uint256)": {
        "notice": ">> FOR CONSUMERwithdraw funds from Agreement."
      }
    }
  }
}